:100000000C9434000C943F010C9451000C9451005A
:100010000C9451000C9451000C9451000C9451001C
:100020000C9451000C9451000C9451000C94270135
:100030000C9451000C9451000C9451000C945100FC
:100040000C9451000C9451000C9451000C945100EC
:100050000C9451000C9451000C9451000C945100DC
:100060000C9451000C94510011241FBECFEFD8E026
:10007000DEBFCDBF11E0A0E0B1E0E4E2F0E102C0FC
:1000800005900D92A834B107D9F721E0A8E4B1E0BA
:1000900001C01D92A235B207E1F70E944E010C94F7
:1000A00010080C94000080917C00807F80937C007D
:1000B00085E38A95F1F7000080917A00806480934F
:1000C0007A0080917A0086FDFCCF80917800909133
:1000D0007900089580FF17C0419A81FF16C0429AA7
:1000E00082FF15C0439A83FF14C05F9A449A85E04B
:1000F0008A95F1F7000044988FE891E00197F1F7B5
:1001000000C0000008954198E8CF4298E9CF439895
:10011000EACF5F98EBCF0F931F93CF938C01F80139
:10012000C1918F01CC2389F0459A8C2F82958F70D5
:100130000E946A008C2F8F700E946A008FE39FE1FB
:100140000197F1F700C00000EACFCF911F910F9106
:1001500008958F929F92AF92BF92CF92DF92EF92CB
:10016000FF920F931F93CF93DF93CDB7DEB76097C6
:100170000FB6F894DEBF0FBECDBF4B015C010E94ED
:10018000FA036B01072E000C880B990B0E943204B6
:100190009B01AC01C501B4010E941B0320E030E0CB
:1001A00048EC52E40E94BE040E94FA039B0177FFD0
:1001B00004C022273327261B370B3F932F93DF9250
:1001C000CF9280E091E09F938F931F9280E18F9375
:1001D0008E010F5F1F4F1F930F930E942B05C801C5
:1001E0000E948B000FB6F894DEBF0FBECDBF6096A5
:1001F0000FB6F894DEBF0FBECDBFDF91CF911F9138
:100200000F91FF90EF90DF90CF90BF90AF909F90B5
:100210008F900895CF93C82F459882958F700E9434
:100220006A008C2F8F700E946A008FE39FE1019714
:10023000F1F700C00000CF91089581E00E940A010B
:100240008FE39FE10197F1F700C0000008951F922E
:100250000F920FB60F9211248F939F9380914F01AD
:1002600090915001019721F485B191E0892785B9DA
:100270009F918F910F900FBE0F901F9018951F9216
:100280000F920FB60F9211248F9381E0809351014A
:100290008F910F900FBE0F901F901895209A8AB1E2
:1002A00083788AB98BB18C678BB93898409880E491
:1002B00080937C0087E880937A00E89A80916900B7
:1002C000826080936900809169008E7F80936900CD
:1002D00087B18E6387B9579A2FEF89EF90E021504D
:1002E00080409040E1F700C0000083E00E946A0077
:1002F0008FE19EE40197F1F700C0000083E00E94C7
:100300006A008FE193E00197F1F700C0000083E0FD
:100310000E946A008FE193E00197F1F700C00000AE
:1003200082E00E946A0088E20E940A018CE00E943A
:100330000A0186E00E940A0181E00E940A018FE31F
:100340009FE10197F1F700C0000080918100886073
:10035000809381008091810083608093810080E19F
:1003600097E2909389008093880080916F0082606B
:1003700080936F007894C1E0D0E002E010E0BB24ED
:10038000B39480915101882349F1109251018091D9
:100390004F01909150018130910509F086C00E9473
:1003A0005300BC0190E080E00E94300420E030E087
:1003B00040EA52E40E94BE0420E030EC4FE754E4EF
:1003C0000E94880360934B0170934C0180934D0110
:1003D00090934E011093500100934F014E991BC012
:1003E0009FEF20E782E0915020408040E1F700C07D
:1003F000000081E090E020914F0130915001232BCB
:1004000011F090E080E09093500180934F010E94A2
:100410001D014E9BFECF80914F019091500102979C
:1004200099F54B990FC010924A0110924901B09270
:1004300048019FEF22E587E0915020408040E1F79E
:1004400000C000004C990FC0D0934A01C0934901ED
:10045000B09248019FEF22E587E091502040804014
:10046000E1F700C000004D990FC010934A010093BE
:100470004901B09248019FEF22E587E0915020406A
:100480008040E1F700C0000080914F019091500141
:10049000009799F40E941D0180E80E940A0188E0FB
:1004A00091E00E948B0028986CCF029709F096CFBC
:1004B000D0935001C0934F0191CF8130910509F045
:1004C00060C00E945300BC0190E080E00E943004B4
:1004D00020E030E040EA52E40E94BE0420E030EC2C
:1004E0004FE754E40E9488036B017C01809149012D
:1004F00090914A018130910559F1F8F0029789F104
:100500000E941D0180E80E940A0188E191E00E949A
:100510008B00C701B6010E94A90080EC0E940A016D
:100520008091490190914A018130910521F1F0F0CB
:10053000029721F11092480124CF20E030E048ECEE
:1005400052E4C701B6010E9488036B017C01D8CF39
:100550002AE132E646E05DE3C701B6010E94BE042F
:10056000F4CF2DE233E949EC5EE3F6CF8FE191E081
:100570000E948B00DFCF8EE291E0FACF8BE391E017
:10058000F7CF029709F0FDCE80914801882369F1E9
:100590000E941D0180E80E940A0188E191E00E940A
:1005A0008B0060914B0170914C0180914D019091B5
:1005B0004E012091490130914A012130310521F14C
:1005C000E0F02230310539F10E94A90080EC0E9450
:1005D0000A018091490190914A018130910529F1E8
:1005E000F8F0029729F110924801289A8FE39CE9CC
:1005F0000197F1F700C00000C4CE20E030E048ECE5
:1006000052E40E948803E0CF2AE132E646E05DE34F
:100610000E94BE04D9CF2DE233E949EC5EE3F8CF66
:100620008FE191E00E948B00DECF8EE291E0FACF65
:100630008BE391E0F7CF5058BB27AA270E943303E2
:100640000C9484040E94760438F00E947D0420F00B
:1006500039F49F3F19F426F40C9473040EF4E095DA
:10066000E7FB0C946D04E92F0E94950458F3BA1728
:10067000620773078407950720F079F4A6F50C94B8
:10068000B7040EF4E0950B2EBA2FA02D0B01B90183
:1006900090010C01CA01A0011124FF27591B99F0F8
:1006A000593F50F4503E68F11A16F040A22F232F04
:1006B000342F4427585FF3CF469537952795A79554
:1006C000F0405395C9F77EF41F16BA0B620B730BFB
:1006D000840BBAF09150A1F0FF0FBB1F661F771F6C
:1006E000881FC2F70EC0BA0F621F731F841F48F421
:1006F000879577956795B795F7959E3F08F0B0CFAA
:100700009395880F08F09927EE0F97958795089590
:100710000E949C030C9484040E947D0458F00E9463
:10072000760440F029F45F3F29F00C946D045111D8
:100730000C94B8040C9473040E94950468F39923F4
:10074000B1F3552391F3951B550BBB27AA276217CD
:100750007307840738F09F5F5F4F220F331F441FDA
:10076000AA1FA9F335D00E2E3AF0E0E832D091500E
:100770005040E695001CCAF72BD0FE2F29D0660FFB
:10078000771F881FBB1F261737074807AB07B0E83E
:1007900009F0BB0B802DBF01FF2793585F4F3AF044
:1007A0009E3F510578F00C946D040C94B8045F3FA3
:1007B000E4F3983ED4F3869577956795B795F795CA
:1007C0009F5FC9F7880F911D9695879597F90895B2
:1007D000E1E0660F771F881FBB1F6217730784074E
:1007E000BA0720F0621B730B840BBA0BEE1F88F75D
:1007F000E09508950E9401046894B1110C94B80426
:1008000008950E949D0488F09F5798F0B92F99276A
:10081000B751B0F0E1F0660F771F881F991F1AF0EB
:10082000BA95C9F714C0B13091F00E94B704B1E095
:1008300008950C94B704672F782F8827B85F39F094
:10084000B93FCCF3869577956795B395D9F73EF484
:1008500090958095709561957F4F8F4F9F4F08952C
:10086000E89409C097FB3EF490958095709561954A
:100870007F4F8F4F9F4F9923A9F0F92F96E9BB2700
:100880009395F695879577956795B795F111F8CF7C
:10089000FAF4BB0F11F460FF1BC06F5F7F4F8F4FE7
:1008A0009F4F16C0882311F096E911C0772321F0DD
:1008B0009EE8872F762F05C0662371F096E8862F75
:1008C00070E060E02AF09A95660F771F881FDAF7CC
:1008D000880F9695879597F9089597F99F6780E80F
:1008E00070E060E008959FEF80EC089500240A9482
:1008F0001616170618060906089500240A941216FB
:100900001306140605060895092E0394000C11F42D
:10091000882352F0BB0F40F4BF2B11F460FF04C0DA
:100920006F5F7F4F8F4F9F4F089557FD9058440F33
:10093000551F59F05F3F71F04795880F97FB991F3E
:1009400061F09F3F79F087950895121613061406FB
:10095000551FF2CF4695F1DF08C016161706180688
:10096000991FF1CF86957105610508940895E89463
:10097000BB2766277727CB0197F908950E94D104FA
:100980000C9484040E94760438F00E947D0420F0C8
:10099000952311F00C946D040C94730411240C94A1
:1009A000B8040E94950470F3959FC1F3950F50E031
:1009B000551F629FF001729FBB27F00DB11D639F11
:1009C000AA27F00DB11DAA1F649F6627B00DA11DB7
:1009D000661F829F2227B00DA11D621F739FB00D5D
:1009E000A11D621F839FA00D611D221F749F3327CD
:1009F000A00D611D231F849F600D211D822F762F66
:100A00006A2F11249F5750409AF0F1F088234AF042
:100A1000EE0FFF1FBB1F661F771F881F91505040AE
:100A2000A9F79E3F510580F00C946D040C94B80416
:100A30005F3FE4F3983ED4F3869577956795B79535
:100A4000F795E7959F5FC1F7FE2B880F911D96954F
:100A5000879597F90895AEE0B0E0E1E3F5E00C94F6
:100A6000E7070D891E898F89988D26E02C831A83CC
:100A7000098397FF02C080E090E801979E838D83F1
:100A8000AE01455E5F4F698D7A8DCE0101960E9461
:100A90005B054D815E8157FD0AC02F813885421765
:100AA00053070CF49A01020F131FF80110822E96BF
:100AB000E4E00C940308ABE0B0E0E1E6F5E00C9470
:100AC000D9077C013B018A01FC01178216828381D0
:100AD00081FFC8C1CE0101965C01F7019381F3014A
:100AE00093FD859193FF81913F01882309F453C1C0
:100AF000853239F493FD859193FF81913F018532D1
:100B000029F4B70190E00E944B07E7CF912C212CEC
:100B1000312CFFE1F31538F08B3211F190F4803273
:100B200009F1833229F137FC3CC020ED280F2A302F
:100B300050F536FE20C08AE0989E200D1124922E9A
:100B400006C08D3291F0803371F7689430F8F3016C
:100B500093FD859193FF81913F018111DACF21C0EF
:100B6000689431F8689432F8F2CF689433F8EFCF94
:100B7000689434F8ECCFEAE02E9E200D1124222E4A
:100B8000689435F8E4CF8E3229F436FC04C16894B9
:100B900036F8DDCF8C3619F4689437F8D8CF88361C
:100BA000B1F2982F9F7D95549330E0F08336A1F1F8
:100BB0008337C1F1833509F063C02801F2E04F0E9D
:100BC000511CF801C080D180692D70E036FC02C054
:100BD0006FEF7FEFC6010E9435074C01689437F82C
:100BE00082010AC00C5F1F4FFFE3F98388248394BE
:100BF000912C6501E89437F833FE2DC0522C8114F6
:100C0000910471F5552009F468CFB70180E290E0B6
:100C10000E944B075A94F6CFF801808189830E5FBA
:100C20001F4FE4CF2801F2E04F0E511CF801C080A5
:100C3000D180692D70E036FC02C06FEF7FEFC601F6
:100C40000E9440074C018201D5CFB70180E290E0BD
:100C50000E944B072A942814190409F0B0F7CECF4C
:100C6000F60137FC859137FE81916F01B70190E065
:100C70000E944B0751105A94F1E08F1A9108BFCF90
:100C8000843619F0893609F077C0F80137FE6BC059
:100C900060817181828193810C5F1F4FF32DFF76FC
:100CA0003F2E97FF09C090958095709561957F4F75
:100CB0008F4F9F4F689437F82AE030E0A5010E94DB
:100CC0007B07C82ECA188C2C432C36FE0CC0E89427
:100CD00040F8C91440F434FE05C032FC03C0F32DC3
:100CE000FE7E4F2E892C44FE95C0FE01EC0DF11DB9
:100CF0008081803309F087C0242D297E422E842DE7
:100D00008870582E43FC95C040FE8FC09C2C8214E6
:100D100018F42C0C922C981844FE91C0B70180E373
:100D200090E00E944B0742FE09C088E790E041FE38
:100D300002C088E590E0B7010E944B07C91408F48F
:100D40008AC0CA94D12C9FEFC91AD90ACA0CDB1CDD
:100D5000F60182916F01B70190E00E944B07AC143D
:100D6000BD04B1F74FCF60817181072E000C880B55
:100D7000990B0E5F1F4F92CFD32CE894D4F82AE042
:100D800030E0853739F1232D297FD22E8F3601F1BE
:100D900048F48835A9F0F701868197812B96E2E126
:100DA0000C94F507803749F08837A9F7D4FE02C0C4
:100DB0006894D2F820E130E00DC06894D4F8F6CF02
:100DC00034FE03C0822F8660D82E20E132E002C0BC
:100DD00028E030E0F801D7FE0FC060817181828188
:100DE00093810C5F1F4FA5010E947B07C82ECA1874
:100DF0003D2CE89437F867CF6081718190E080E006
:100E00000E5F1F4FF0CF42FC02C0839478CF8394D3
:100E1000839475CF842D867809F471CFF6CFB7010E
:100E200080E290E00E944B0783948214C0F3512C1F
:100E300073CF522C5818821408F46ECFF8CF842D3B
:100E4000867809F47BCF8BE241FE80E247FC8DE29D
:100E5000B70190E071CFB70180E390E00E944B07AB
:100E60009A946CCF8FEF9FEF99CFFC010590615062
:100E700070400110D8F7809590958E0F9F1F0895B0
:100E8000FC016150704001900110D8F78095909559
:100E90008E0F9F1F08950F931F93CF93DF93182FEB
:100EA000092FEB018B8181FD09C01FEF0FEF812F0F
:100EB000902FDF91CF911F910F91089582FF14C061
:100EC0002E813F818C819D81281739073CF4E88170
:100ED000F981CF0101969983888310838E819F8148
:100EE00001969F838E83E3CFE885F985812F09954D
:100EF000892BA1F3DACFFA01AA27283051F120314A
:100F000081F1E8946F936E7F6E5F7F4F8F4F9F4F9D
:100F1000AF4FB1E03ED0B4E03CD0670F781F891FDF
:100F20009A1FA11D680F791F8A1F911DA11D6A0FAD
:100F3000711D811D911DA11D20D009F468943F9160
:100F40002AE0269F11243019305D3193DEF6CF015F
:100F50000895462F4770405D4193B3E00FD0C9F725
:100F6000F6CF462F4F70405D4A3318F0495D31FD92
:100F70004052419302D0A9F7EACFB4E0A6959795E5
:100F8000879577956795BA95C9F7009761057105BB
:100F900008959B01AC010A2E069457954795379505
:100FA0002795BA95C9F7620F731F841F951FA01D5F
:100FB00008952F923F924F925F926F927F928F92FD
:100FC0009F92AF92BF92CF92DF92EF92FF920F93D8
:100FD0001F93CF93DF93CDB7DEB7CA1BDB0B0FB6E2
:100FE000F894DEBF0FBECDBF09942A88398848889F
:100FF0005F846E847D848C849B84AA84B984C88435
:10100000DF80EE80FD800C811B81AA81B981CE0F2B
:10101000D11D0FB6F894DEBF0FBECDBFED01089510
:04102000F894FFCF72
:1010240025642E253032640053697374656D612024
:101034004170616761646F00446973743A200055BC
:101044006E696461643A204D6574726F7300556E05
:10105400696461643A205069657300556E6964611E
:08106400643A2050756C67002E
:00000001FF
